:100000000C9472000C9493000C9493000C94930045
:100010000C9493000C9493000C9493000C94930014
:100020000C9493000C9493000C9493000C94930004
:100030000C9493000C9493000C9493000C949300F4
:100040000C9493000C9451030C9493000C94930023
:100050000C9493000C9493000C9493000C949300D4
:100060000C9493000C9493000C9493000C949300C4
:100070000C9493000C9493000C9493000C949300B4
:100080000C9493000C9493000C9493000C949300A4
:100090000C9493000C9493000C9493000C94930094
:1000A0000C9493000C9493000C9493000C94930084
:1000B0000C9493000C9493000C9493000C94930074
:1000C0000C9493000C9493000C9493000C94930064
:1000D0000C9493000C9493000C9493000C94930054
:1000E0000C94930011241FBECFEFD1E2DEBFCDBF31
:1000F00000E00CBF12E0A0E0B2E0EAEFF9E100E0BE
:100100000BBF02C007900D92AC30B107D9F71AE2CD
:10011000ACE0B2E001C01D92AA37B107E1F70E943E
:100120006B010C94FB0C0C9400000F931F93CF9366
:10013000DF93EC010E94540900910C0210910D0212
:10014000C00FD11F88E2C030D80750F40C171D072C
:1001500050F4025F1D4FD0930D02C0930C0205C0F6
:1001600000E010E002C000E010E00E94320A802FA0
:10017000912FDF91CF911F910F91089508951092C3
:100180000D0210920C02089520910C0230910D0284
:1001900080E098E2821B930B0895FC010396928302
:1001A00081832FEF3FEF348323839683858390876A
:1001B000878310820895FC01118610860895CF93DD
:1001C000DF93EC01FB0189819A81DC0112962D916C
:1001D0003C9113973383228329813A813583248389
:1001E00012962D913C911397D90115967C936E939D
:1001F0001497DC0113967C936E9312977A8369832C
:10020000D187C08788818F5F8883DF91CF910895E0
:10021000CF93DF93AC01EB01288139818FEF2F3F22
:10022000380721F4FA01A781B08518C0DA011396C6
:10023000FA0185819681FC01808191812817390717
:1002400068F012960D90BC91A02D1296ED91FC9144
:100250001397808191812817390798F71296ED91AD
:10026000FC911397FB83EA83D583C483BD83AC835E
:100270001396DC93CE93129759874887FA018081B1
:100280008F5F8083DF91CF910895FC01A281B381BC
:100290008481958115969C938E931497A481B58142
:1002A0008281938113969C938E931297A085B1853A
:1002B00011968D919C9112978E179F0731F484812E
:1002C000958112969C938E931197118610868C912E
:1002D00081508C930895AF92BF92CF92DF92EF92AC
:1002E000FF920F938FEF84B98EE991E060E072E0A6
:1002F00040E850E020E030E000E0EE24FF24CC2491
:10030000DD24AA24BB240E9499060E9423098CEBB9
:1003100082B980E090E00F91FF90EF90DF90CF9056
:10032000BF90AF9008958FEF81B984B98BE582B902
:10033000089580B18170809582B90895CF93DF933D
:100340000F920F92CDB7DEB70E9493010E945A0917
:100350009A838983CE01019664EF71E00E94240B99
:100360000E949901F7CF089521E1FC012083319784
:1003700032E23083FC013297A3E3A083FC01339780
:100380006083FC0134977083FC0135971082FC0177
:10039000369760E86083FC0137971082FC0138973C
:1003A0001082FC0139971082FC013A9762E0608369
:1003B000FC013B9763E06083FC013C9764E0608351
:1003C000FC013D9765E06083FC013E9766E0608339
:1003D000FC013F9767E06083FC01709768E06083F1
:1003E000FC01719769E06083FC01729760E16083B2
:1003F000FC0173972083FC01749722E12083FC01A8
:10040000759723E12083FC01769724E12083FC018A
:10041000779725E12083FC01789726E12083FC0172
:10042000799727E12083FC017A9728E12083FC015A
:100430007B9729E12083FC017C9720E22083FC014B
:100440007D9721E22083FC017E973083FC017F971A
:1004500023E22083FC01B0974083FC01B1975083D5
:10046000FC01B29726E22083FC01B39727E22083A8
:10047000FC01B49728E22083FC01B59729E2208390
:10048000FC01B69720E32083FC01B79721E320838A
:100490008897089581E08093890083EF8093880096
:1004A00083E08093810080EC80938000EFE6F0E0B1
:1004B000808182608083A0910E2AB0910F2ACD9115
:1004C000CDBFDD91DEBFFF91EF91DF91CF91BF9165
:1004D000AF919F918F917F916F915F914F913F91DC
:1004E0002F911F910F91FF90EF90DF90CF90BF90D1
:1004F000AF909F908F907F906F905F904F903F90C4
:100500002F901F900F900CBE0F900BBE0F900FBE40
:100510000F90089581E0089508950F920FB6F89412
:100520000F920BB60F920CB60F921F9211242F92BE
:100530003F924F925F926F927F928F929F92AF9273
:10054000BF92CF92DF92EF92FF920F931F932F9360
:100550003F934F935F936F937F938F939F93AF934B
:10056000BF93CF93DF93EF93FF93A0910E2AB091A7
:100570000F2A0DB60D920EB60D920E946E0BA09131
:100580000E2AB0910F2ACD91CDBFDD91DEBFFF9134
:10059000EF91DF91CF91BF91AF919F918F917F911B
:1005A0006F915F914F913F912F911F910F91FF900C
:1005B000EF90DF90CF90BF90AF909F908F907F9003
:1005C0006F905F904F903F902F901F900F900CBEB8
:1005D0000F900BBE0F900FBE0F9008950F920FB6A5
:1005E000F8940F920BB60F920CB60F921F92112433
:1005F0002F923F924F925F926F927F928F929F9233
:10060000AF92BF92CF92DF92EF92FF920F931F9320
:100610002F933F934F935F936F937F938F939F930A
:10062000AF93BF93CF93DF93EF93FF93A0910E2AE5
:10063000B0910F2A0DB60D920EB60D920E946C0964
:100640000E946E0BA0910E2AB0910F2ACD91CDBFC2
:10065000DD91DEBFFF91EF91DF91CF91BF91AF911F
:100660009F918F917F916F915F914F913F912F91CA
:100670001F910F91FF90EF90DF90CF90BF90AF90C0
:100680009F908F907F906F905F904F903F902F90B2
:100690001F900F900CBE0F900BBE0F900FBE0F90CF
:1006A00008950E94EE021895CF93DF93DC01CD915F
:1006B000DC911197209721F15C964C915C971696EE
:1006C0002D913C911797240F311D17963C932E9333
:1006D00016971296ED91FC9113972E173F0720F075
:1006E0001796DC93CE93169716963C91169717960D
:1006F0002C91862F972F632F722F50E00E94DC0CD5
:10070000DF91CF910895CF93DF93EC012C8D2223BD
:10071000A9F14423B9F48C819D81422F50E00E94BD
:10072000DC0C2C8D8C819D81820F911D9D838C838F
:100730002A813B818217930708F1888199819D83E3
:100740008C831CC08E819F81422F50E00E94DC0C64
:100750004C8D50E0509541955F4F8E819F81840F65
:10076000951F9F838E83288139818217930730F4E8
:100770008A819B81480F591F5F834E838A8D8F5FCB
:100780008A8FDF91CF9108950F931F93CF93DF93BB
:10079000EC010FB6F8940F928E8D1816C4F4898967
:1007A000882329F414C08989882321F410C08E017C
:1007B0000F5E1F4FC8010E94470C882311F00E9452
:1007C000D80C8E8D81508E8F8E8D181664F38FEF1E
:1007D0008E8F0F900FBE0FB6F8940F928D8D181656
:1007E000C4F48885882329F414C08885882321F4DB
:1007F00010C08E01085F1F4FC8010E94470C88235C
:1008000011F00E94D80C8D8D81508D8F8D8D181612
:1008100064F38FEF8D8F0F900FBEDF91CF911F91FB
:100820000F910895CF93DF93EC010FB6F8940F92D8
:10083000488159812B8D30E0EC8DF0E02E9FC00176
:100840002F9F900D3E9F900D1124840F951F9B8329
:100850008A831A8E5D834C83C9010197E89F9001BA
:10086000E99F300DF89F300D1124240F351F3F8371
:100870002E838FEF8D8F8E8F662361F4888588237A
:1008800089F0CE0108960E94470C813059F40E94ED
:100890008D0208C0CE0108960E94CD00CE0141967F
:1008A0000E94CD000F900FBE81E0DF91CF9108959F
:1008B0000F931F93CF93DF93182F062F8823F9F000
:1008C0008FE190E00E949500EC010097D9F0019F24
:1008D000C001112401960E94950099838883009796
:1008E00041F01B8F0C8FCE0161E00E941204CE01FB
:1008F0000BC0CE010E94BE0080E090E005C080E009
:1009000090E002C080E090E0DF91CF911F910F91C5
:1009100008958F929F92BF92CF92DF92EF92FF92B3
:100920000F931F93CF93DF9300D00F920F92CDB709
:10093000DEB78C014B015D834C83B22EFF24EE2485
:10094000E394CC24DD246894C3F8C80ED91E0FB6F6
:10095000F8940F92F801928D838D9817A8F4C8012E
:10096000B4014B2D0E948303F8018189882341F053
:10097000C80141960E94470C813011F40E948D02FB
:100980000F900FBE81E052C08C819D81009721F4B1
:100990000F900FBE80E04AC0FF2029F4CE010196DF
:1009A0000E948F0CFE2C0F900FBE0E9454090FB6B0
:1009B000F8940F92F801858D8F3F09F4158EF80198
:1009C000868D8F3F09F4168E0F900FBECE010196D3
:1009D000BE016C5F7F4F0E949A0C882309F50FB609
:1009E000F8940F92F801928D0F900FBEF801838D4D
:1009F000981781F46C817D81C6010E941B0CC8018F
:100A00000E94C4030E94320A882309F0A0CF0E94EA
:100A10008D029DCFC8010E94C4030E94320A97CF65
:100A2000C8010E94C4030E94320A80E00F900F9018
:100A30000F900F900F90DF91CF911F910F91FF902A
:100A4000EF90DF90CF90BF909F908F9008950F937D
:100A50001F93CF93DF93EC018A019A8D8B8D9817AA
:100A6000E0F4CE01422F0E9483038E8D8F3F81F4EC
:100A700089898823A1F0CE0141960E94470C8823E2
:100A800081F00115110579F081E0F80180830CC037
:100A90008E8D8F5F8E8F81E007C080E005C081E082
:100AA00003C081E001C081E0DF91CF911F910F91E0
:100AB00008958F929F92BF92CF92DF92EF92FF9212
:100AC0000F931F93CF93DF9300D00F920F92CDB768
:100AD000DEB78C014B015D834C83B22EFF24EE24E4
:100AE000E3940F2EF1E1CF2EDD24F02DC80ED91E98
:100AF0000FB6F8940F92F801828D882351F1E680A9
:100B0000F780C801B4010E945403BB2081F4F801AE
:100B1000828D8150828F80858823B9F0C801089624
:100B20000E94470C813089F40E948D020EC0F801AA
:100B3000F782E6828189882341F0C80141960E94AC
:100B4000470C882311F00E948D020F900FBE81E0A8
:100B500050C08C819D81009721F40F900FBE80E0E2
:100B600048C0FF2029F4CE0101960E948F0CFE2C74
:100B70000F900FBE0E9454090FB6F8940F92F8011F
:100B8000858D8F3F09F4158EF801868D8F3F09F40E
:100B9000168E0F900FBECE010196BE016C5F7F4F87
:100BA0000E949A0C8823F9F40FB6F8940F92F8017A
:100BB000828D0F900FBE882381F46C817D81C601E8
:100BC0000E941B0CC8010E94C4030E94320A8823A1
:100BD00009F08ECF0E948D028BCFC8010E94C40302
:100BE0000E94320A85CFC8010E94C4030E94320AC3
:100BF00080E00F900F900F900F900F90DF91CF91AA
:100C00001F910F91FF90EF90DF90CF90BF909F903A
:100C10008F9008950F931F93CF93DF93EC018A0178
:100C20008A8D8823F1F0CE010E9454038A8D815071
:100C30008A8F8D8D8F3F81F488858823A1F0CE0126
:100C400008960E94470C882381F00115110579F060
:100C500081E0F80180830CC08D8D8F5F8D8F81E0E6
:100C600007C080E005C081E003C081E001C081E0F1
:100C7000DF91CF911F910F9108950FB6F8940F92C5
:100C8000FC01828D0F900FBE0895FC01828D0895A6
:100C9000CF93DF93EC01888199810E94BE00CE0141
:100CA0000E94BE00DF91CF910895FC01928D81E0FA
:100CB000911180E00895FC01228D81E0938D29132C
:100CC00080E00895CF93DF93EC01E0910E2AF0913C
:100CD0000F2A938382838091162A9091172AC8172E
:100CE000D90768F480911A2A90911B2A60910E2AE4
:100CF00070910F2A6E5F7F4F0E94080117C080918C
:100D00001C2A90911D2A60910E2A70910F2A6E5F05
:100D10007F4F0E9408018091090290910A02C81732
:100D2000D90720F4D0930A02C0930902DF91CF9132
:100D300008954F925F926F927F928F929F92BF928F
:100D4000CF92DF92EF92FF920F931F93CF93DF9397
:100D50002C014B01EA013901B02E89E290E00E949A
:100D600095008C01009709F4E7C0C114D10409F083
:100D7000F8C0CE010E9495006C01F801908F878B1E
:100D8000009729F4C8010E94BE008FEFDAC0C601A7
:100D900065EA70E0AE010E94E50C9E0121503040F2
:100DA000F8018789908D6C01C20ED31EC801499647
:100DB000B40140E150E00E94EC0CF80110A6CB2DEC
:100DC000F4E0FB1508F4C4E0F801C68B88249924EC
:100DD000689481F8800E911EC4010E94DB00C80156
:100DE0000C960E94DB00F8011187008785E090E0F7
:100DF0008C1B910995878487138B028BC601B201E6
:100E0000A3010E94B401F80191838083E114F104ED
:100E100019F0F701118300830FB6F8940F928091B7
:100E2000182A8F5F8093182A80910E2A90910F2A9A
:100E3000009709F03FC010930F2A00930E2A80916B
:100E4000182A813009F045C0C0E0D0E0CE01880FFB
:100E5000991F880F991F880F991F8C0F9D1F805E07
:100E6000954D0E94CD002196C530D10579F7CDE48E
:100E7000DAE2CE010E94CD000F2EF6E5EF2EFAE267
:100E8000FF2EF02DC7010E94CD008FE59AE20E944F
:100E9000CD0088E69AE20E94CD0081E79AE20E94A6
:100EA000CD00D0931D2AC0931C2AF0921B2AE092F9
:100EB0001A2A0FC08091142A882359F4E0910E2A2F
:100EC000F0910F2A8689B81620F010930F2A00930C
:100ED0000E2AF801868990911E2A981710F48093A3
:100EE0001E2A90911F2A9F5F90931F2A9091152A86
:100EF000981710F48093152A90E09C01220F331F5D
:100F0000220F331F220F331F820F931F805E954DD8
:100F1000B4010E94DF000F900FBE8091142A882335
:100F200069F0E0910E2AF0910F2A86898B1540F422
:100F30000E948D0281E005C08FEF03C081E001C0F7
:100F400081E0DF91CF911F910F91FF90EF90DF90A3
:100F5000CF90BF909F908F907F906F905F904F90B9
:100F60000895FC01D08EC78A12CFEF92FF920F93A3
:100F70001F93CF93DF937C010FB6F8940F9280916B
:100F80000E2A90910F2AE816F90621F0E114F104D7
:100F900041F402C0EE24FF24C0910E2AD0910F2A02
:100FA00001C0E7018E010E5F1F4FC8010E9445017D
:100FB0008C899D89009721F0CE010C960E944501F5
:100FC00088E69AE2B8010E94DF008091192A8F5FBB
:100FD0008093192A80911F2A8F5F80931F2A0F9078
:100FE0000FBE8091142A882329F0E114F10411F432
:100FF0000E948D02DF91CF911F910F91FF90EF9092
:1010000008950FB6F8940F92009729F4E0910E2AF4
:10101000F0910F2A01C0FC010F900FBE8689089540
:10102000EF92FF921F93CF93DF93653008F064E057
:101030000FB6F8940F9220910E2A30910F2A821742
:10104000930719F0009741F402C080E090E0C0914E
:101050000E2AD0910F2A01C0EC014E89461709F4DF
:1010600047C0461728F411E0009731F410E004C09F
:1010700011E0009709F010E06E8B25E030E0261BB0
:1010800031093D872C87842F90E09C01220F331F6C
:10109000220F331F220F331F820F931F805E954D47
:1010A0002A853B8528173907F9F4EE24FF24689434
:1010B000E1F8EC0EFD1EC7010E9445018E8990915A
:1010C000152A981710F48093152A90E09C01220F9E
:1010D000331F220F331F220F331F820F931F805E97
:1010E000954DB7010E94DF00113011F40E948D026E
:1010F0000F900FBEDF91CF911F91FF90EF90089559
:10110000FC01828593852AE28137920761F4248964
:1011100035898AE22F35380741F081E02115310504
:1011200029F080E0089580E0089580E008950F930D
:101130001F93CF93DF93EC010097B9F180910E2AB2
:1011400090910F2AC817D90781F10FB6F8940F9222
:10115000CE010E948008813031F58E010E5F1F4F55
:10116000C8010E9445018E899091152A981710F4A4
:101170008093152A90E09C01220F331F220F331F0A
:10118000220F331F820F931F805E954DB8010E947E
:10119000DF00E0910E2AF0910F2A9E898689981728
:1011A00010F00E948D020F900FBEDF91CF911F9122
:1011B0000F910895EF92FF921F93CF93DF93EC016D
:1011C0000E9480088130B9F58091132A882351F557
:1011D000E0910E2AF0910F2A11E09E8986899817D6
:1011E00008F410E0EE24FF246894E1F8EC0EFD1EF4
:1011F000C7010E9445018E899091152A981710F415
:101200008093152A90E09C01220F331F220F331F79
:10121000220F331F820F931F805E954DB7010E94EE
:10122000DF000AC0BE01645F7F4F8FE59AE20E9433
:10123000DF0010E001C010E0812FDF91CF911F91FE
:10124000FF90EF900895AF92BF92CF92DF92EF920E
:10125000FF920F9382EC9AE064E072E040E850E085
:1012600020E030E000E0EE24FF24CC24DD24AA249A
:10127000BB240E949906813049F4F8948093142A83
:101280001092172A1092162A0E944A020F91FF907C
:10129000EF90DF90CF90BF90AF900895F8941092A8
:1012A000142A0E948C0208958091132A8F5F8093E4
:1012B000132A08950FB6F8940F928091162A9091F0
:1012C000172A0F900FBE08958091162A9091172A21
:1012D00008958091182A08950F931F93CF93DF9359
:1012E0008091132A882309F0B3C08091162A909127
:1012F000172A01969093172A8093162A8091162A0E
:101300009091172A009799F580911C2A90911D2A97
:1013100020911A2A30911B2A30931D2A20931C2ACF
:1013200090931B2A80931A2A8091102A8F5F8093B2
:10133000102AE0911C2AF0911D2A8081882339F41B
:101340008FEF9FEF90930A028093090210C0E09103
:101350001C2AF0911D2A0580F681E02D0680F78178
:10136000E02D8281938190930A028093090220915B
:10137000162A3091172A8091090290910A022817A3
:10138000390708F46AC0E0911C2AF0911D2A808177
:10139000882399F0E0911C2AF0911D2A0580F6819E
:1013A000E02DC681D7818A819B812091162A3091B8
:1013B000172A28173907F8F419C08FEF9FEF909379
:1013C0000A028093090249C0E0911C2AF0911D2A6B
:1013D0000580F681E02DC681D7818A819B8120918D
:1013E000162A3091172A2817390728F490930A02F1
:1013F0008093090232C08E010E5F1F4FC8010E9408
:1014000045018C899D89009721F0CE010C960E94A0
:1014100045018E899091152A981710F48093152A0A
:1014200090E09C01220F331F220F331F220F331F26
:10143000820F931F805E954DB8010E94DF00E091FE
:101440001C2AF0911D2A8081882309F0BDCFB5CFD9
:101450008091122A8F5F8093122ADF91CF911F9182
:101460000F910895AF92BF92CF92DF92EF92FF92C9
:101470000F931F93CF93DF930FB6F8940F92809141
:10148000132A81508093132A8091132A882309F00C
:1014900069C08091182A882381F567C0D601ED9133
:1014A000FC91C681D781CE010C960E9445018E0128
:1014B0000E5F1F4FC8010E9445018E899091152A29
:1014C000981710F48093152A90E09C01220F331F87
:1014D000220F331F220F331F820F931F805E954D03
:1014E000B8010E94DF00E0910E2AF0910F2A9E8938
:1014F0008689981788F0BA2C0FC0BB240F2EFFE501
:10150000EF2EFAE2FF2EF02D0F2EF4E6CF2EFAE2A8
:10151000DF2EF02DAA24A394F7018081882309F0FF
:10152000BDCF8091122A882381F08091122A8823CE
:1015300099F00E946C098091122A81508093122A9E
:101540008091122A8823A9F707C0F1E0BF1621F085
:101550008091112A813041F41092112A0E948D024B
:1015600081E003C080E001C080E00F900FBEDF91FA
:10157000CF911F910F91FF90EF90DF90CF90BF9090
:10158000AF9008950F2EF8E6EF2EFAE2FF2EF02D21
:101590000F2EFDE6CF2EFAE2DF2EF02D00E21AE24A
:1015A0008091192A882339F10E945409D701CC91DE
:1015B0000E94320ACC23F9F00FB6F8940F92D601AC
:1015C000ED91FC91C681D781CE0102960E94450122
:1015D0008091182A81508093182A8091192A81506D
:1015E0008093192A0F900FBE8F89988D0E94BE009C
:1015F000CE010E94BE00F8018081823010F00E946E
:101600008D020E94B301CCCFCF93DF93EC01009702
:10161000B1F00E9454098091162A9091172AC80FA0
:10162000D91F80910E2A90910F2A02960E9445019F
:10163000CE010E9462060E94320A882311F40E94A1
:101640008D02DF91CF9108950F931F93CF93DF9376
:101650008C01EB010E945409F80180819181C80F2F
:10166000D91F2091162A3091172A2817390768F4B4
:10167000C817D90750F58091162A9091172AD1835F
:10168000C0838C179D07B0F40BC0C817D907C8F0EA
:101690008091162A9091172A8C179D0790F015C0FB
:1016A00080910E2A90910F2A02960E944501CE0148
:1016B0000E9462060E94320A882359F40E948D0219
:1016C00008C0F801D183C083EBCFF801D183C08378
:1016D000F1CFDF91CF911F910F9108958091132A3F
:1016E000882399F48091152A90E0FC01EE0FFF1FEA
:1016F000EE0FFF1FEE0FFF1F8E0F9F1FFC01E05E1E
:10170000F54D8081882329F01BC081E08093112A48
:1017100008958091152A81508093152A8091152A69
:1017200090E0FC01EE0FFF1FEE0FFF1FEE0FFF1FFB
:101730008E0F9F1FFC01E05EF54D8081882349F3E9
:101740008091152A90E0FC01EE0FFF1FEE0FFF1FA6
:10175000EE0FFF1FE80FF91FE05EF54DA181B2818A
:1017600012960D90BC91A02DB283A183CF01039658
:10177000A817B90731F412968D919C911397928313
:1017800081830180F281E02D8681978190930F2AD9
:1017900080930E2A0895EF92FF920F931F93CF9399
:1017A000DF937C010FB6F8940F9280910E2A9091EE
:1017B0000F2AE816F90621F0E114F10441F402C001
:1017C000EE24FF24C0910E2AD0910F2A01C0E70118
:1017D0008E010E5F1F4FC8010E9445018C899D89B3
:1017E000009721F0CE010C960E94450181E79AE214
:1017F000B8010E94DF000F900FBEE114F104A1F4C4
:101800008091142A882319F00E948D020DC09091B6
:10181000712A8091182A981729F410920F2A109291
:101820000E2A02C00E946E0BDF91CF911F910F9183
:10183000FF90EF900895CF93DF93EB0160910E2A14
:1018400070910F2A645F7F4F0E94080180910E2AD9
:1018500090910F2A02960E9445018FEFCF3FD80743
:1018600059F460910E2A70910F2A6E5F7F4F81E7C5
:101870009AE20E94DF0008C08091162A9091172AF0
:101880008C0F9D1F0E946206DF91CF9108950F93E8
:101890001F93CF93DF93DC011596ED91FC91169782
:1018A00006811781E8012C96CE010E9445018091A6
:1018B000132A8823E9F4E8012296CE010E9445010B
:1018C000F80186899091152A981710F48093152AAB
:1018D00090E09C01220F331F220F331F220F331F72
:1018E000820F931F805E954DBE010E94DF0005C0F0
:1018F0008FE59AE2BE010E94DF00E0910E2AF0918E
:101900000F2A81E0D80156962C915697968929176F
:1019100008F480E0DF91CF911F910F910895FC01B1
:101920008091102A80838091162A9091172A9283A1
:1019300081830895FC01DB010FB6F8940F924D915D
:101940005C9111976FEF4F3F560751F18091102A2C
:101950009081981749F02091162A3091172A818199
:10196000928128173907F0F48091162A9091172A4E
:1019700021813281821B930B84179507A8F48091F3
:10198000162A9091172AB901681B790BCB01840F95
:10199000951F8D939C93CF010E948F0C80E005C012
:1019A00080E003C081E001C081E00F900FBE089588
:1019B00081E08093112A0895FB01DC0102C00190AF
:1019C0000D9241505040D8F70895DC0101C06D934D
:1019D00041505040E0F70895FB01DC014150504078
:1019E00048F001900D920020C9F701C01D924150AE
:0A19F0005040E0F70895F894FFCF8F
:0C19FA004C45440049444C4500FFFF00F0
:00000001FF
