:100000000C9472000C9493000C9493000C94930045
:100010000C9493000C9493000C9493000C94930014
:100020000C9493000C9493000C9493000C94930004
:100030000C9493000C9493000C9493000C949300F4
:100040000C9493000C9493000C9493000C949300E4
:100050000C9493000C9493000C9493000C949300D4
:100060000C9493000C9493000C9493000C949300C4
:100070000C9493000C9493000C9493000C949300B4
:100080000C9493000C9493000C9493000C949300A4
:100090000C9493000C9493000C9493000C94930094
:1000A0000C9493000C9493000C9493000C94930084
:1000B0000C9493000C9493000C9493000C94930074
:1000C0000C9493000C9493000C9493000C94930064
:1000D0000C9493000C9493000C9493000C94930054
:1000E0000C94930011241FBECFEFD1E2DEBFCDBF31
:1000F00000E00CBF12E0A0E0B2E0ECE6F1E000E0CE
:100100000BBF02C007900D92A230B107D9F712E0E1
:10011000A2E0B2E001C01D92A230B107E1F70E9457
:10012000AF000C94B4000C9400008091000288236E
:1001300081F082B1880F82B98FE996E8A1E0815001
:100140009040A040E1F700C00000809100028823A9
:1001500081F708958FEF81B981E082B908950E94F7
:0C016000AA000E949500FBCFF894FFCF8E
:02016C00010090
:00000001FF
